{
  "_format": "hh-sol-artifact-1",
  "contractName": "BaseRegistrarImplementation",
  "sourceName": "contracts/registrar/BaseRegistrarImplementation.sol",
  "abi": [
    {
      "inputs": [
        {
          "internalType": "contract BNSRegistry",
          "name": "_bns",
          "type": "address"
        },
        {
          "internalType": "contract BNS6551Factory",
          "name": "_factory",
          "type": "address"
        },
        {
          "internalType": "bytes32",
          "name": "_baseNode",
          "type": "bytes32"
        }
      ],
      "stateMutability": "nonpayable",
      "type": "constructor"
    },
    {
      "anonymous": false,
      "inputs": [
        {
          "indexed": true,
          "internalType": "address",
          "name": "owner",
          "type": "address"
        },
        {
          "indexed": true,
          "internalType": "address",
          "name": "approved",
          "type": "address"
        },
        {
          "indexed": true,
          "internalType": "uint256",
          "name": "tokenId",
          "type": "uint256"
        }
      ],
      "name": "Approval",
      "type": "event"
    },
    {
      "anonymous": false,
      "inputs": [
        {
          "indexed": true,
          "internalType": "address",
          "name": "owner",
          "type": "address"
        },
        {
          "indexed": true,
          "internalType": "address",
          "name": "operator",
          "type": "address"
        },
        {
          "indexed": false,
          "internalType": "bool",
          "name": "approved",
          "type": "bool"
        }
      ],
      "name": "ApprovalForAll",
      "type": "event"
    },
    {
      "anonymous": false,
      "inputs": [
        {
          "indexed": true,
          "internalType": "address",
          "name": "previousOwner",
          "type": "address"
        },
        {
          "indexed": true,
          "internalType": "address",
          "name": "newOwner",
          "type": "address"
        }
      ],
      "name": "OwnershipTransferred",
      "type": "event"
    },
    {
      "anonymous": false,
      "inputs": [
        {
          "indexed": true,
          "internalType": "address",
          "name": "from",
          "type": "address"
        },
        {
          "indexed": true,
          "internalType": "address",
          "name": "to",
          "type": "address"
        },
        {
          "indexed": true,
          "internalType": "uint256",
          "name": "tokenId",
          "type": "uint256"
        }
      ],
      "name": "Transfer",
      "type": "event"
    },
    {
      "inputs": [
        {
          "internalType": "address",
          "name": "to",
          "type": "address"
        },
        {
          "internalType": "uint256",
          "name": "tokenId",
          "type": "uint256"
        }
      ],
      "name": "approve",
      "outputs": [],
      "stateMutability": "nonpayable",
      "type": "function"
    },
    {
      "inputs": [
        {
          "internalType": "address",
          "name": "owner",
          "type": "address"
        }
      ],
      "name": "balanceOf",
      "outputs": [
        {
          "internalType": "uint256",
          "name": "",
          "type": "uint256"
        }
      ],
      "stateMutability": "view",
      "type": "function"
    },
    {
      "inputs": [],
      "name": "baseNode",
      "outputs": [
        {
          "internalType": "bytes32",
          "name": "",
          "type": "bytes32"
        }
      ],
      "stateMutability": "view",
      "type": "function"
    },
    {
      "inputs": [],
      "name": "bns",
      "outputs": [
        {
          "internalType": "contract BNSRegistry",
          "name": "",
          "type": "address"
        }
      ],
      "stateMutability": "view",
      "type": "function"
    },
    {
      "inputs": [
        {
          "internalType": "uint256",
          "name": "",
          "type": "uint256"
        }
      ],
      "name": "bns6551s",
      "outputs": [
        {
          "internalType": "address",
          "name": "",
          "type": "address"
        }
      ],
      "stateMutability": "view",
      "type": "function"
    },
    {
      "inputs": [],
      "name": "controller",
      "outputs": [
        {
          "internalType": "address",
          "name": "",
          "type": "address"
        }
      ],
      "stateMutability": "view",
      "type": "function"
    },
    {
      "inputs": [],
      "name": "factory",
      "outputs": [
        {
          "internalType": "contract BNS6551Factory",
          "name": "",
          "type": "address"
        }
      ],
      "stateMutability": "view",
      "type": "function"
    },
    {
      "inputs": [
        {
          "internalType": "uint256",
          "name": "tokenId",
          "type": "uint256"
        }
      ],
      "name": "getApproved",
      "outputs": [
        {
          "internalType": "address",
          "name": "",
          "type": "address"
        }
      ],
      "stateMutability": "view",
      "type": "function"
    },
    {
      "inputs": [],
      "name": "getNodeHashes",
      "outputs": [
        {
          "internalType": "bytes32[]",
          "name": "",
          "type": "bytes32[]"
        }
      ],
      "stateMutability": "view",
      "type": "function"
    },
    {
      "inputs": [
        {
          "internalType": "address",
          "name": "owner",
          "type": "address"
        },
        {
          "internalType": "address",
          "name": "operator",
          "type": "address"
        }
      ],
      "name": "isApprovedForAll",
      "outputs": [
        {
          "internalType": "bool",
          "name": "",
          "type": "bool"
        }
      ],
      "stateMutability": "view",
      "type": "function"
    },
    {
      "inputs": [],
      "name": "name",
      "outputs": [
        {
          "internalType": "string",
          "name": "",
          "type": "string"
        }
      ],
      "stateMutability": "view",
      "type": "function"
    },
    {
      "inputs": [],
      "name": "owner",
      "outputs": [
        {
          "internalType": "address",
          "name": "",
          "type": "address"
        }
      ],
      "stateMutability": "view",
      "type": "function"
    },
    {
      "inputs": [
        {
          "internalType": "uint256",
          "name": "tokenId",
          "type": "uint256"
        }
      ],
      "name": "ownerOf",
      "outputs": [
        {
          "internalType": "address",
          "name": "",
          "type": "address"
        }
      ],
      "stateMutability": "view",
      "type": "function"
    },
    {
      "inputs": [
        {
          "internalType": "uint256",
          "name": "id",
          "type": "uint256"
        },
        {
          "internalType": "address",
          "name": "owner",
          "type": "address"
        }
      ],
      "name": "reclaim",
      "outputs": [],
      "stateMutability": "nonpayable",
      "type": "function"
    },
    {
      "inputs": [
        {
          "internalType": "uint256",
          "name": "id",
          "type": "uint256"
        },
        {
          "internalType": "address",
          "name": "owner",
          "type": "address"
        }
      ],
      "name": "register",
      "outputs": [],
      "stateMutability": "nonpayable",
      "type": "function"
    },
    {
      "inputs": [],
      "name": "renounceOwnership",
      "outputs": [],
      "stateMutability": "nonpayable",
      "type": "function"
    },
    {
      "inputs": [
        {
          "internalType": "address",
          "name": "from",
          "type": "address"
        },
        {
          "internalType": "address",
          "name": "to",
          "type": "address"
        },
        {
          "internalType": "uint256",
          "name": "tokenId",
          "type": "uint256"
        }
      ],
      "name": "safeTransferFrom",
      "outputs": [],
      "stateMutability": "nonpayable",
      "type": "function"
    },
    {
      "inputs": [
        {
          "internalType": "address",
          "name": "from",
          "type": "address"
        },
        {
          "internalType": "address",
          "name": "to",
          "type": "address"
        },
        {
          "internalType": "uint256",
          "name": "tokenId",
          "type": "uint256"
        },
        {
          "internalType": "bytes",
          "name": "data",
          "type": "bytes"
        }
      ],
      "name": "safeTransferFrom",
      "outputs": [],
      "stateMutability": "nonpayable",
      "type": "function"
    },
    {
      "inputs": [
        {
          "internalType": "address",
          "name": "operator",
          "type": "address"
        },
        {
          "internalType": "bool",
          "name": "approved",
          "type": "bool"
        }
      ],
      "name": "setApprovalForAll",
      "outputs": [],
      "stateMutability": "nonpayable",
      "type": "function"
    },
    {
      "inputs": [
        {
          "internalType": "address",
          "name": "_controller",
          "type": "address"
        }
      ],
      "name": "setController",
      "outputs": [],
      "stateMutability": "nonpayable",
      "type": "function"
    },
    {
      "inputs": [
        {
          "internalType": "address",
          "name": "resolver",
          "type": "address"
        }
      ],
      "name": "setResolver",
      "outputs": [],
      "stateMutability": "nonpayable",
      "type": "function"
    },
    {
      "inputs": [
        {
          "internalType": "bytes4",
          "name": "interfaceId",
          "type": "bytes4"
        }
      ],
      "name": "supportsInterface",
      "outputs": [
        {
          "internalType": "bool",
          "name": "",
          "type": "bool"
        }
      ],
      "stateMutability": "view",
      "type": "function"
    },
    {
      "inputs": [],
      "name": "symbol",
      "outputs": [
        {
          "internalType": "string",
          "name": "",
          "type": "string"
        }
      ],
      "stateMutability": "view",
      "type": "function"
    },
    {
      "inputs": [
        {
          "internalType": "uint256",
          "name": "tokenId",
          "type": "uint256"
        }
      ],
      "name": "tokenURI",
      "outputs": [
        {
          "internalType": "string",
          "name": "",
          "type": "string"
        }
      ],
      "stateMutability": "view",
      "type": "function"
    },
    {
      "inputs": [
        {
          "internalType": "uint256",
          "name": "tokenId",
          "type": "uint256"
        },
        {
          "internalType": "address",
          "name": "newOwner",
          "type": "address"
        }
      ],
      "name": "transfer",
      "outputs": [],
      "stateMutability": "nonpayable",
      "type": "function"
    },
    {
      "inputs": [
        {
          "internalType": "address",
          "name": "from",
          "type": "address"
        },
        {
          "internalType": "address",
          "name": "to",
          "type": "address"
        },
        {
          "internalType": "uint256",
          "name": "tokenId",
          "type": "uint256"
        }
      ],
      "name": "transferFrom",
      "outputs": [],
      "stateMutability": "nonpayable",
      "type": "function"
    },
    {
      "inputs": [
        {
          "internalType": "address",
          "name": "newOwner",
          "type": "address"
        }
      ],
      "name": "transferOwnership",
      "outputs": [],
      "stateMutability": "nonpayable",
      "type": "function"
    }
  ],
  "bytecode": "0x60806040523480156200001157600080fd5b50604051620020eb380380620020eb833981016040819052620000349162000215565b604080518082018252601481527f42696e616e6365204e616d652053657276696365000000000000000000000000602080830191825283518085019094526003845262424e5360e81b908401528151919291620000949160009162000156565b508051620000aa90600190602084019062000156565b505050620000c7620000c16200010060201b60201c565b62000104565b600780546001600160a01b039485166001600160a01b03199182161790915560088054939094169216919091179091556009556200029a565b3390565b600680546001600160a01b038381166001600160a01b0319831681179093556040519116919082907f8be0079c531659141344cd1fd0a4f28419497f9722a3daafe3b4186f6b6457e090600090a35050565b82805462000164906200025d565b90600052602060002090601f016020900481019282620001885760008555620001d3565b82601f10620001a357805160ff1916838001178555620001d3565b82800160010185558215620001d3579182015b82811115620001d3578251825591602001919060010190620001b6565b50620001e1929150620001e5565b5090565b5b80821115620001e15760008155600101620001e6565b6001600160a01b03811681146200021257600080fd5b50565b6000806000606084860312156200022b57600080fd5b83516200023881620001fc565b60208501519093506200024b81620001fc565b80925050604084015190509250925092565b600181811c908216806200027257607f821691505b602082108114156200029457634e487b7160e01b600052602260045260246000fd5b50919050565b611e4180620002aa6000396000f3fe608060405234801561001057600080fd5b50600436106101a95760003560e01c8063824db6d5116100f9578063c45a015511610097578063ddf7fcb011610071578063ddf7fcb0146103a2578063e985e9c5146103ab578063f2fde38b146103e7578063f77c4791146103fa57600080fd5b8063c45a015514610369578063c87b56dd1461037c578063dbbdf0831461038f57600080fd5b806395d89b41116100d357806395d89b4114610328578063a22cb46514610330578063b7760c8f14610343578063b88d4fde1461035657600080fd5b8063824db6d5146102db5780638da5cb5b1461030457806392eefe9b1461031557600080fd5b806323b872dd116101665780634e543b26116101405780634e543b261461028c5780636352211e1461029f57806370a08231146102b2578063715018a6146102d357600080fd5b806323b872dd1461025357806328ed4f6c1461026657806342842e0e1461027957600080fd5b806301ffc9a7146101ae57806306fdde03146101d6578063081812fc146101eb578063095ea7b3146102165780631867e2f51461022b578063217b31301461023e575b600080fd5b6101c16101bc36600461187f565b61040d565b60405190151581526020015b60405180910390f35b6101de61045f565b6040516101cd91906118f4565b6101fe6101f9366004611907565b6104f1565b6040516001600160a01b0390911681526020016101cd565b610229610224366004611935565b610518565b005b6007546101fe906001600160a01b031681565b610246610633565b6040516101cd9190611961565b6102296102613660046119a5565b61068a565b6102296102743660046119e6565b6106bb565b6102296102873660046119a5565b610879565b61022961029a366004611a16565b610894565b6101fe6102ad366004611907565b610909565b6102c56102c0366004611a16565b610914565b6040519081526020016101cd565b61022961099a565b6101fe6102e9366004611907565b600b602052600090815260409020546001600160a01b031681565b6006546001600160a01b03166101fe565b610229610323366004611a16565b6109ae565b6101de6109d8565b61022961033e366004611a33565b6109e7565b6102296103513660046119e6565b6109f6565b610229610364366004611a7c565b610b49565b6008546101fe906001600160a01b031681565b6101de61038a366004611907565b610b81565b61022961039d3660046119e6565b610bf5565b6102c560095481565b6101c16103b9366004611b5c565b6001600160a01b03918216600090815260056020908152604080832093909416825291909152205460ff1690565b6102296103f5366004611a16565b610e90565b600a546101fe906001600160a01b031681565b60006001600160e01b031982166380ac58cd60e01b148061043e57506001600160e01b03198216635b5e139f60e01b145b8061045957506301ffc9a760e01b6001600160e01b03198316145b92915050565b60606000805461046e90611b8a565b80601f016020809104026020016040519081016040528092919081815260200182805461049a90611b8a565b80156104e75780601f106104bc576101008083540402835291602001916104e7565b820191906000526020600020905b8154815290600101906020018083116104ca57829003601f168201915b5050505050905090565b60006104fc82610f09565b506000908152600460205260409020546001600160a01b031690565b600061052382610f68565b9050806001600160a01b0316836001600160a01b031614156105965760405162461bcd60e51b815260206004820152602160248201527f4552433732313a20617070726f76616c20746f2063757272656e74206f776e656044820152603960f91b60648201526084015b60405180910390fd5b336001600160a01b03821614806105b257506105b281336103b9565b6106245760405162461bcd60e51b815260206004820152603d60248201527f4552433732313a20617070726f76652063616c6c6572206973206e6f7420746f60448201527f6b656e206f776e6572206f7220617070726f76656420666f7220616c6c000000606482015260840161058d565b61062e8383610fc8565b505050565b6060600c8054806020026020016040519081016040528092919081815260200182805480156104e757602002820191906000526020600020905b81548152602001906001019080831161066d575050505050905090565b6106943382611036565b6106b05760405162461bcd60e51b815260040161058d90611bc5565b61062e8383836110b5565b6007546009546040516302571be360e01b8152600481019190915230916001600160a01b0316906302571be39060240160206040518083038186803b15801561070357600080fd5b505afa158015610717573d6000803e3d6000fd5b505050506040513d601f19601f8201168201806040525081019061073b9190611c12565b6001600160a01b0316146107615760405162461bcd60e51b815260040161058d90611c2f565b61076b3383611036565b6107e85760405162461bcd60e51b815260206004820152604260248201527f426173653a3a7265636c61696d3a43616c6c6572206973206e6f74206170707260448201527f6f766564206f72206e6f7420746865206f776e6572206f662074686520746f6b60648201526132b760f11b608482015260a40161058d565b6007546009546040516306ab592360e01b81526004810191909152602481018490526001600160a01b038381166044830152909116906306ab592390606401602060405180830381600087803b15801561084157600080fd5b505af1158015610855573d6000803e3d6000fd5b505050506040513d601f19601f8201168201806040525081019061062e9190611c81565b61062e83838360405180602001604052806000815250610b49565b61089c611219565b600754600954604051630c4b7b8560e11b815260048101919091526001600160a01b03838116602483015290911690631896f70a90604401600060405180830381600087803b1580156108ee57600080fd5b505af1158015610902573d6000803e3d6000fd5b5050505050565b600061045982610f68565b60006001600160a01b03821661097e5760405162461bcd60e51b815260206004820152602960248201527f4552433732313a2061646472657373207a65726f206973206e6f7420612076616044820152683634b21037bbb732b960b91b606482015260840161058d565b506001600160a01b031660009081526003602052604090205490565b6109a2611219565b6109ac6000611273565b565b6109b6611219565b600a80546001600160a01b0319166001600160a01b0392909216919091179055565b60606001805461046e90611b8a565b6109f23383836112c5565b5050565b6007546009546040516302571be360e01b8152600481019190915230916001600160a01b0316906302571be39060240160206040518083038186803b158015610a3e57600080fd5b505afa158015610a52573d6000803e3d6000fd5b505050506040513d601f19601f82011682018060405250810190610a769190611c12565b6001600160a01b031614610a9c5760405162461bcd60e51b815260040161058d90611c2f565b600a546001600160a01b03163314610ac65760405162461bcd60e51b815260040161058d90611c9a565b6000828152600260205260409020546001600160a01b0316610b365760405162461bcd60e51b8152602060048201526024808201527f426173653a3a7472616e736665723a20546f6b656e20646f6573206e6f7420656044820152631e1a5cdd60e21b606482015260840161058d565b610b3f82611394565b6107e88183611429565b610b533383611036565b610b6f5760405162461bcd60e51b815260040161058d90611bc5565b610b7b848484846115b4565b50505050565b6060610b8c82610f09565b6000610ba360408051602081019091526000815290565b90506000815111610bc35760405180602001604052806000815250610bee565b80610bcd846115e7565b604051602001610bde929190611ceb565b6040516020818303038152906040525b9392505050565b6007546009546040516302571be360e01b8152600481019190915230916001600160a01b0316906302571be39060240160206040518083038186803b158015610c3d57600080fd5b505afa158015610c51573d6000803e3d6000fd5b505050506040513d601f19601f82011682018060405250810190610c759190611c12565b6001600160a01b031614610c9b5760405162461bcd60e51b815260040161058d90611c2f565b600a546001600160a01b03163314610cc55760405162461bcd60e51b815260040161058d90611c9a565b6000828152600260205260409020546001600160a01b031615610ceb57610ceb82611394565b610cf58183611429565b6009546040805160208082019390935280820185905281518082038301815260609091019091528051910120600090600c80546001810182556000919091527fdf6966c971051c3d54ec59162606531493a51404a002842f56009d7e5cf4a8c70181905560085460405163a8cad8c760e01b8152306004820152602481018690529192506001600160a01b03169063a8cad8c790604401602060405180830381600087803b158015610da657600080fd5b505af1158015610dba573d6000803e3d6000fd5b505050506040513d601f19601f82011682018060405250810190610dde9190611c12565b6000848152600b60205260409081902080546001600160a01b0319166001600160a01b0393841617905560075460095491516306ab592360e01b81526004810192909252602482018690528483166044830152909116906306ab592390606401602060405180830381600087803b158015610e5857600080fd5b505af1158015610e6c573d6000803e3d6000fd5b505050506040513d601f19601f82011682018060405250810190610b7b9190611c81565b610e98611219565b6001600160a01b038116610efd5760405162461bcd60e51b815260206004820152602660248201527f4f776e61626c653a206e6577206f776e657220697320746865207a65726f206160448201526564647265737360d01b606482015260840161058d565b610f0681611273565b50565b6000818152600260205260409020546001600160a01b0316610f065760405162461bcd60e51b8152602060048201526018602482015277115490cdcc8c4e881a5b9d985b1a59081d1bdad95b88125160421b604482015260640161058d565b6000818152600260205260408120546001600160a01b0316806104595760405162461bcd60e51b8152602060048201526018602482015277115490cdcc8c4e881a5b9d985b1a59081d1bdad95b88125160421b604482015260640161058d565b600081815260046020526040902080546001600160a01b0319166001600160a01b0384169081179091558190610ffd82610f68565b6001600160a01b03167f8c5be1e5ebec7d5bd14f71427d1e84f3dd0314c0f7b2291e5b200ac8c7c3b92560405160405180910390a45050565b60008061104283610f68565b9050806001600160a01b0316846001600160a01b0316148061108957506001600160a01b0380821660009081526005602090815260408083209388168352929052205460ff165b806110ad5750836001600160a01b03166110a2846104f1565b6001600160a01b0316145b949350505050565b826001600160a01b03166110c882610f68565b6001600160a01b0316146110ee5760405162461bcd60e51b815260040161058d90611d1a565b6001600160a01b0382166111505760405162461bcd60e51b8152602060048201526024808201527f4552433732313a207472616e7366657220746f20746865207a65726f206164646044820152637265737360e01b606482015260840161058d565b826001600160a01b031661116382610f68565b6001600160a01b0316146111895760405162461bcd60e51b815260040161058d90611d1a565b600081815260046020908152604080832080546001600160a01b03199081169091556001600160a01b0387811680865260038552838620805460001901905590871680865283862080546001019055868652600290945282852080549092168417909155905184937fddf252ad1be2c89b69c2b068fc378daa952ba7f163c4a11628f55a4df523b3ef91a4505050565b6006546001600160a01b031633146109ac5760405162461bcd60e51b815260206004820181905260248201527f4f776e61626c653a2063616c6c6572206973206e6f7420746865206f776e6572604482015260640161058d565b600680546001600160a01b038381166001600160a01b0319831681179093556040519116919082907f8be0079c531659141344cd1fd0a4f28419497f9722a3daafe3b4186f6b6457e090600090a35050565b816001600160a01b0316836001600160a01b031614156113275760405162461bcd60e51b815260206004820152601960248201527f4552433732313a20617070726f766520746f2063616c6c657200000000000000604482015260640161058d565b6001600160a01b03838116600081815260056020908152604080832094871680845294825291829020805460ff191686151590811790915591519182527f17307eab39ab6107e8899845ad3d59bd9653f200f220920489ca2b5937696c31910160405180910390a3505050565b600061139f82610f68565b90506113aa82610f68565b600083815260046020908152604080832080546001600160a01b03199081169091556001600160a01b0385168085526003845282852080546000190190558785526002909352818420805490911690555192935084927fddf252ad1be2c89b69c2b068fc378daa952ba7f163c4a11628f55a4df523b3ef908390a45050565b6001600160a01b03821661147f5760405162461bcd60e51b815260206004820181905260248201527f4552433732313a206d696e7420746f20746865207a65726f2061646472657373604482015260640161058d565b6000818152600260205260409020546001600160a01b0316156114e45760405162461bcd60e51b815260206004820152601c60248201527f4552433732313a20746f6b656e20616c7265616479206d696e74656400000000604482015260640161058d565b6000818152600260205260409020546001600160a01b0316156115495760405162461bcd60e51b815260206004820152601c60248201527f4552433732313a20746f6b656e20616c7265616479206d696e74656400000000604482015260640161058d565b6001600160a01b038216600081815260036020908152604080832080546001019055848352600290915280822080546001600160a01b0319168417905551839291907fddf252ad1be2c89b69c2b068fc378daa952ba7f163c4a11628f55a4df523b3ef908290a45050565b6115bf8484846110b5565b6115cb84848484611684565b610b7b5760405162461bcd60e51b815260040161058d90611d5f565b606060006115f483611791565b600101905060008167ffffffffffffffff81111561161457611614611a66565b6040519080825280601f01601f19166020018201604052801561163e576020820181803683370190505b5090508181016020015b600019016f181899199a1a9b1b9c1cb0b131b232b360811b600a86061a8153600a85049450846116775761167c565b611648565b509392505050565b60006001600160a01b0384163b1561178657604051630a85bd0160e11b81526001600160a01b0385169063150b7a02906116c8903390899088908890600401611db1565b602060405180830381600087803b1580156116e257600080fd5b505af1925050508015611712575060408051601f3d908101601f1916820190925261170f91810190611dee565b60015b61176c573d808015611740576040519150601f19603f3d011682016040523d82523d6000602084013e611745565b606091505b5080516117645760405162461bcd60e51b815260040161058d90611d5f565b805181602001fd5b6001600160e01b031916630a85bd0160e11b1490506110ad565b506001949350505050565b60008072184f03e93ff9f4daa797ed6e38ed64bf6a1f0160401b83106117d05772184f03e93ff9f4daa797ed6e38ed64bf6a1f0160401b830492506040015b6d04ee2d6d415b85acef810000000083106117fc576d04ee2d6d415b85acef8100000000830492506020015b662386f26fc10000831061181a57662386f26fc10000830492506010015b6305f5e1008310611832576305f5e100830492506008015b612710831061184657612710830492506004015b60648310611858576064830492506002015b600a83106104595760010192915050565b6001600160e01b031981168114610f0657600080fd5b60006020828403121561189157600080fd5b8135610bee81611869565b60005b838110156118b757818101518382015260200161189f565b83811115610b7b5750506000910152565b600081518084526118e081602086016020860161189c565b601f01601f19169290920160200192915050565b602081526000610bee60208301846118c8565b60006020828403121561191957600080fd5b5035919050565b6001600160a01b0381168114610f0657600080fd5b6000806040838503121561194857600080fd5b823561195381611920565b946020939093013593505050565b6020808252825182820181905260009190848201906040850190845b818110156119995783518352928401929184019160010161197d565b50909695505050505050565b6000806000606084860312156119ba57600080fd5b83356119c581611920565b925060208401356119d581611920565b929592945050506040919091013590565b600080604083850312156119f957600080fd5b823591506020830135611a0b81611920565b809150509250929050565b600060208284031215611a2857600080fd5b8135610bee81611920565b60008060408385031215611a4657600080fd5b8235611a5181611920565b915060208301358015158114611a0b57600080fd5b634e487b7160e01b600052604160045260246000fd5b60008060008060808587031215611a9257600080fd5b8435611a9d81611920565b93506020850135611aad81611920565b925060408501359150606085013567ffffffffffffffff80821115611ad157600080fd5b818701915087601f830112611ae557600080fd5b813581811115611af757611af7611a66565b604051601f8201601f19908116603f01168101908382118183101715611b1f57611b1f611a66565b816040528281528a6020848701011115611b3857600080fd5b82602086016020830137600060208483010152809550505050505092959194509250565b60008060408385031215611b6f57600080fd5b8235611b7a81611920565b91506020830135611a0b81611920565b600181811c90821680611b9e57607f821691505b60208210811415611bbf57634e487b7160e01b600052602260045260246000fd5b50919050565b6020808252602d908201527f4552433732313a2063616c6c6572206973206e6f7420746f6b656e206f776e6560408201526c1c881bdc88185c1c1c9bdd9959609a1b606082015260800190565b600060208284031215611c2457600080fd5b8151610bee81611920565b60208082526032908201527f426173653a3a6c6976653a43616c6c6572206973206e6f7420746865206f776e6040820152716572206f662074686520626173654e6f646560701b606082015260800190565b600060208284031215611c9357600080fd5b5051919050565b60208082526031908201527f426173653a3a6f6e6c79436f6e74726f6c6c65723a43616c6c6572206973206e60408201527037ba103a34329031b7b73a3937b63632b960791b606082015260800190565b60008351611cfd81846020880161189c565b835190830190611d1181836020880161189c565b01949350505050565b60208082526025908201527f4552433732313a207472616e736665722066726f6d20696e636f72726563742060408201526437bbb732b960d91b606082015260800190565b60208082526032908201527f4552433732313a207472616e7366657220746f206e6f6e20455243373231526560408201527131b2b4bb32b91034b6b83632b6b2b73a32b960711b606082015260800190565b6001600160a01b0385811682528416602082015260408101839052608060608201819052600090611de4908301846118c8565b9695505050505050565b600060208284031215611e0057600080fd5b8151610bee8161186956fea2646970667358221220bb1d7a0a33e2acd17c60cf7cf18ed46affbd3ca74c8d8c8e00608bf54f0714b664736f6c63430008090033",
  "linkReferences": {},
  "deployedLinkReferences": {}
}