{
  "_format": "hh-sol-artifact-1",
  "contractName": "BNBRegistrarController",
  "sourceName": "contracts/registrar/BNBRegistrarController.sol",
  "abi": [
    {
      "inputs": [
        {
          "internalType": "contract BaseRegistrarImplementation",
          "name": "_base",
          "type": "address"
        },
        {
          "internalType": "string",
          "name": "_baseName",
          "type": "string"
        },
        {
          "internalType": "uint256",
          "name": "_registrationFee",
          "type": "uint256"
        }
      ],
      "stateMutability": "nonpayable",
      "type": "constructor"
    },
    {
      "anonymous": false,
      "inputs": [
        {
          "indexed": true,
          "internalType": "address",
          "name": "previousOwner",
          "type": "address"
        },
        {
          "indexed": true,
          "internalType": "address",
          "name": "newOwner",
          "type": "address"
        }
      ],
      "name": "OwnershipTransferred",
      "type": "event"
    },
    {
      "inputs": [],
      "name": "MAX_PERCENTAGE",
      "outputs": [
        {
          "internalType": "uint256",
          "name": "",
          "type": "uint256"
        }
      ],
      "stateMutability": "view",
      "type": "function"
    },
    {
      "inputs": [],
      "name": "baseName",
      "outputs": [
        {
          "internalType": "string",
          "name": "",
          "type": "string"
        }
      ],
      "stateMutability": "view",
      "type": "function"
    },
    {
      "inputs": [
        {
          "internalType": "uint256",
          "name": "tokenId",
          "type": "uint256"
        }
      ],
      "name": "bid",
      "outputs": [],
      "stateMutability": "payable",
      "type": "function"
    },
    {
      "inputs": [
        {
          "internalType": "uint256",
          "name": "tokenId",
          "type": "uint256"
        }
      ],
      "name": "endAuction",
      "outputs": [],
      "stateMutability": "nonpayable",
      "type": "function"
    },
    {
      "inputs": [],
      "name": "endOfYear",
      "outputs": [
        {
          "internalType": "uint256",
          "name": "",
          "type": "uint256"
        }
      ],
      "stateMutability": "view",
      "type": "function"
    },
    {
      "inputs": [
        {
          "internalType": "uint256",
          "name": "",
          "type": "uint256"
        }
      ],
      "name": "highestBid",
      "outputs": [
        {
          "internalType": "uint256",
          "name": "",
          "type": "uint256"
        }
      ],
      "stateMutability": "view",
      "type": "function"
    },
    {
      "inputs": [
        {
          "internalType": "uint256",
          "name": "",
          "type": "uint256"
        }
      ],
      "name": "highestBidder",
      "outputs": [
        {
          "internalType": "address",
          "name": "",
          "type": "address"
        }
      ],
      "stateMutability": "view",
      "type": "function"
    },
    {
      "inputs": [],
      "name": "owner",
      "outputs": [
        {
          "internalType": "address",
          "name": "",
          "type": "address"
        }
      ],
      "stateMutability": "view",
      "type": "function"
    },
    {
      "inputs": [
        {
          "internalType": "string",
          "name": "name",
          "type": "string"
        },
        {
          "internalType": "address",
          "name": "owner",
          "type": "address"
        },
        {
          "internalType": "address",
          "name": "resolver",
          "type": "address"
        }
      ],
      "name": "register",
      "outputs": [],
      "stateMutability": "payable",
      "type": "function"
    },
    {
      "inputs": [],
      "name": "registrationFee",
      "outputs": [
        {
          "internalType": "uint256",
          "name": "",
          "type": "uint256"
        }
      ],
      "stateMutability": "view",
      "type": "function"
    },
    {
      "inputs": [],
      "name": "renounceOwnership",
      "outputs": [],
      "stateMutability": "nonpayable",
      "type": "function"
    },
    {
      "inputs": [
        {
          "internalType": "uint256",
          "name": "timestamp",
          "type": "uint256"
        }
      ],
      "name": "setEndOfYear",
      "outputs": [],
      "stateMutability": "nonpayable",
      "type": "function"
    },
    {
      "inputs": [],
      "name": "taxRate",
      "outputs": [
        {
          "internalType": "uint256",
          "name": "",
          "type": "uint256"
        }
      ],
      "stateMutability": "view",
      "type": "function"
    },
    {
      "inputs": [
        {
          "internalType": "address",
          "name": "newOwner",
          "type": "address"
        }
      ],
      "name": "transferOwnership",
      "outputs": [],
      "stateMutability": "nonpayable",
      "type": "function"
    },
    {
      "inputs": [],
      "name": "withdraw",
      "outputs": [],
      "stateMutability": "nonpayable",
      "type": "function"
    }
  ],
  "bytecode": "0x60806040523480156200001157600080fd5b506040516200135238038062001352833981016040819052620000349162000188565b6200003f336200007c565b600180546001600160a01b0319166001600160a01b03851617905581516200006f906002906020850190620000cc565b5060035550620002ce9050565b600080546001600160a01b038381166001600160a01b0319831681178455604051919092169283917f8be0079c531659141344cd1fd0a4f28419497f9722a3daafe3b4186f6b6457e09190a35050565b828054620000da9062000291565b90600052602060002090601f016020900481019282620000fe576000855562000149565b82601f106200011957805160ff191683800117855562000149565b8280016001018555821562000149579182015b82811115620001495782518255916020019190600101906200012c565b50620001579291506200015b565b5090565b5b808211156200015757600081556001016200015c565b634e487b7160e01b600052604160045260246000fd5b6000806000606084860312156200019e57600080fd5b83516001600160a01b0381168114620001b657600080fd5b602085810151919450906001600160401b0380821115620001d657600080fd5b818701915087601f830112620001eb57600080fd5b81518181111562000200576200020062000172565b604051601f8201601f19908116603f011681019083821181831017156200022b576200022b62000172565b816040528281528a868487010111156200024457600080fd5b600093505b8284101562000268578484018601518185018701529285019262000249565b828411156200027a5760008684830101525b809750505050505050604084015190509250925092565b600181811c90821680620002a657607f821691505b60208210811415620002c857634e487b7160e01b600052602260045260246000fd5b50919050565b61107480620002de6000396000f3fe6080604052600436106100e85760003560e01c8063771a3a1d1161008a578063b55d5f2c11610059578063b55d5f2c14610251578063b9a2de3a14610271578063e31026c814610291578063f2fde38b146102a757600080fd5b8063771a3a1d146101dc5780637915c069146101f35780638da5cb5b14610206578063b14c63c51461022457600080fd5b8063451df52e116100c6578063451df52e1461014f578063454a2ab31461019d5780634c255c97146101b0578063715018a6146101c757600080fd5b806314c44e09146100ed57806315030633146101165780633ccfd60b14610138575b600080fd5b3480156100f957600080fd5b5061010360035481565b6040519081526020015b60405180910390f35b34801561012257600080fd5b5061012b6102c7565b60405161010d9190610ca1565b34801561014457600080fd5b5061014d610355565b005b34801561015b57600080fd5b5061018561016a366004610cbb565b6005602052600090815260409020546001600160a01b031681565b6040516001600160a01b03909116815260200161010d565b61014d6101ab366004610cbb565b61038c565b3480156101bc57600080fd5b50610103620f424081565b3480156101d357600080fd5b5061014d6104b4565b3480156101e857600080fd5b50610103620493e081565b61014d610201366004610d0f565b6104c8565b34801561021257600080fd5b506000546001600160a01b0316610185565b34801561023057600080fd5b5061010361023f366004610cbb565b60046020526000908152604090205481565b34801561025d57600080fd5b5061014d61026c366004610cbb565b6109ff565b34801561027d57600080fd5b5061014d61028c366004610cbb565b610a0c565b34801561029d57600080fd5b5061010360065481565b3480156102b357600080fd5b5061014d6102c2366004610de1565b610b25565b600280546102d490610dfe565b80601f016020809104026020016040519081016040528092919081815260200182805461030090610dfe565b801561034d5780601f106103225761010080835404028352916020019161034d565b820191906000526020600020905b81548152906001019060200180831161033057829003601f168201915b505050505081565b61035d610b9b565b60405133904780156108fc02916000818181858888f19350505050158015610389573d6000803e3d6000fd5b50565b60008181526004602052604090205434116104235760405162461bcd60e51b815260206004820152604660248201527f436f6e74726f6c6c65723a3a6269643a20426964206973206c6f77657220746860448201527f616e206f7220657175616c20746f207468652063757272656e742068696768656064820152651cdd08189a5960d21b608482015260a4015b60405180910390fd5b600081815260046020526040902054156104875760008181526005602090815260408083205460049092528083205490516001600160a01b039092169281156108fc029290818181858888f19350505050158015610485573d6000803e3d6000fd5b505b60009081526004602090815260408083203490556005909152902080546001600160a01b03191633179055565b6104bc610b9b565b6104c66000610bf5565b565b34600354146105325760405162461bcd60e51b815260206004820152603060248201527f436f6e74726f6c6c65723a3a72656769737465723a20496e636f72726563742060448201526f726567697374726174696f6e2066656560801b606482015260840161041a565b8251602084012060015460405163dbbdf08360e01b81526004810183905230602482015282916001600160a01b03169063dbbdf08390604401600060405180830381600087803b15801561058557600080fd5b505af1158015610599573d6000803e3d6000fd5b505050506000600160009054906101000a90046001600160a01b03166001600160a01b031663ddf7fcb06040518163ffffffff1660e01b815260040160206040518083038186803b1580156105ed57600080fd5b505afa158015610601573d6000803e3d6000fd5b505050506040513d601f19601f820116820180604052508101906106259190610e39565b604080516020810192909252810184905260600160408051601f198184030181528282528051602091820120600154631867e2f560e01b855292519094506001600160a01b0390921692631867e2f59260048083019392829003018186803b15801561069057600080fd5b505afa1580156106a4573d6000803e3d6000fd5b505050506040513d601f19601f820116820180604052508101906106c89190610e52565b604051630c4b7b8560e11b8152600481018390526001600160a01b0386811660248301529190911690631896f70a90604401600060405180830381600087803b15801561071457600080fd5b505af1158015610728573d6000803e3d6000fd5b505060405163ca446dd960e01b8152600481018490526001600160a01b0388811660248301528716925063ca446dd99150604401600060405180830381600087803b15801561077657600080fd5b505af115801561078a573d6000803e3d6000fd5b5050505060008660026040516020016107a4929190610f09565b604051602081830303815290604052905060008760026040516020016107cb929190610f3c565b604051602081830303815290604052905060008860026040516020016107f2929190610f75565b60408051601f1981840301815290829052637737221360e01b825291506001600160a01b038816906377372213906108309087908790600401610faf565b600060405180830381600087803b15801561084a57600080fd5b505af115801561085e573d6000803e3d6000fd5b505060405163f59cd25f60e01b81526001600160a01b038a16925063f59cd25f91506108909087908690600401610faf565b600060405180830381600087803b1580156108aa57600080fd5b505af11580156108be573d6000803e3d6000fd5b5050604051630a338bd960e01b81526001600160a01b038a169250630a338bd991506108f09087908590600401610faf565b600060405180830381600087803b15801561090a57600080fd5b505af115801561091e573d6000803e3d6000fd5b5050600154604051630a3b53db60e21b8152600481018990526001600160a01b038c8116602483015290911692506328ed4f6c9150604401600060405180830381600087803b15801561097057600080fd5b505af1158015610984573d6000803e3d6000fd5b50506001546040516323b872dd60e01b81523060048201526001600160a01b038c81166024830152604482018a905290911692506323b872dd9150606401600060405180830381600087803b1580156109dc57600080fd5b505af11580156109f0573d6000803e3d6000fd5b50505050505050505050505050565b610a07610b9b565b600655565b6001546000828152600560205260409081902054905163b7760c8f60e01b8152600481018490526001600160a01b03918216602482015291169063b7760c8f90604401600060405180830381600087803b158015610a6957600080fd5b505af1158015610a7d573d6000803e3d6000fd5b5050506000828152600560205260409020546001600160a01b031690506108fc620f4240610aae620493e082610fe6565b600085815260046020526040902054610ac79190610ffd565b610ad1919061101c565b6040518115909202916000818181858888f19350505050158015610af9573d6000803e3d6000fd5b5060009081526004602090815260408083208390556005909152902080546001600160a01b0319169055565b610b2d610b9b565b6001600160a01b038116610b925760405162461bcd60e51b815260206004820152602660248201527f4f776e61626c653a206e6577206f776e657220697320746865207a65726f206160448201526564647265737360d01b606482015260840161041a565b61038981610bf5565b6000546001600160a01b031633146104c65760405162461bcd60e51b815260206004820181905260248201527f4f776e61626c653a2063616c6c6572206973206e6f7420746865206f776e6572604482015260640161041a565b600080546001600160a01b038381166001600160a01b0319831681178455604051919092169283917f8be0079c531659141344cd1fd0a4f28419497f9722a3daafe3b4186f6b6457e09190a35050565b60005b83811015610c60578181015183820152602001610c48565b83811115610c6f576000848401525b50505050565b60008151808452610c8d816020860160208601610c45565b601f01601f19169290920160200192915050565b602081526000610cb46020830184610c75565b9392505050565b600060208284031215610ccd57600080fd5b5035919050565b634e487b7160e01b600052604160045260246000fd5b6001600160a01b038116811461038957600080fd5b8035610d0a81610cea565b919050565b600080600060608486031215610d2457600080fd5b833567ffffffffffffffff80821115610d3c57600080fd5b818601915086601f830112610d5057600080fd5b813581811115610d6257610d62610cd4565b604051601f8201601f19908116603f01168101908382118183101715610d8a57610d8a610cd4565b81604052828152896020848701011115610da357600080fd5b826020860160208301376000602084830101528097505050505050610dca60208501610cff565b9150610dd860408501610cff565b90509250925092565b600060208284031215610df357600080fd5b8135610cb481610cea565b600181811c90821680610e1257607f821691505b60208210811415610e3357634e487b7160e01b600052602260045260246000fd5b50919050565b600060208284031215610e4b57600080fd5b5051919050565b600060208284031215610e6457600080fd5b8151610cb481610cea565b8054600090600181811c9080831680610e8957607f831692505b6020808410821415610eab57634e487b7160e01b600052602260045260246000fd5b818015610ebf5760018114610ed057610efd565b60ff19861689528489019650610efd565b60008881526020902060005b86811015610ef55781548b820152908501908301610edc565b505084890196505b50505050505092915050565b60008351610f1b818460208801610c45565b601760f91b908301908152610f336001820185610e6f565b95945050505050565b6231b09760e91b815260008351610f5a816003850160208801610c45565b601760f91b600391840191820152610f336004820185610e6f565b6332b7b09760e11b815260008351610f94816004850160208801610c45565b601760f91b600491840191820152610f336005820185610e6f565b828152604060208201526000610fc86040830184610c75565b949350505050565b634e487b7160e01b600052601160045260246000fd5b600082821015610ff857610ff8610fd0565b500390565b600081600019048311821515161561101757611017610fd0565b500290565b60008261103957634e487b7160e01b600052601260045260246000fd5b50049056fea26469706673582212206782556a0ea979650576df7420026df33cc2e7661f64fd0a5e0e8ffbf3cbd9dc64736f6c63430008090033",
  "linkReferences": {},
  "deployedLinkReferences": {}
}