{
  "_format": "hh-sol-artifact-1",
  "contractName": "PublicResolver",
  "sourceName": "contracts/resolver/PublicResolver.sol",
  "abi": [
    {
      "inputs": [
        {
          "internalType": "address",
          "name": "bnsAddr",
          "type": "address"
        }
      ],
      "stateMutability": "nonpayable",
      "type": "constructor"
    },
    {
      "inputs": [
        {
          "internalType": "bytes32",
          "name": "node",
          "type": "bytes32"
        }
      ],
      "name": "addr",
      "outputs": [
        {
          "internalType": "address",
          "name": "",
          "type": "address"
        }
      ],
      "stateMutability": "view",
      "type": "function"
    },
    {
      "inputs": [
        {
          "internalType": "bytes32",
          "name": "",
          "type": "bytes32"
        }
      ],
      "name": "addresses",
      "outputs": [
        {
          "internalType": "address",
          "name": "",
          "type": "address"
        }
      ],
      "stateMutability": "view",
      "type": "function"
    },
    {
      "inputs": [],
      "name": "bns",
      "outputs": [
        {
          "internalType": "contract BNSRegistry",
          "name": "",
          "type": "address"
        }
      ],
      "stateMutability": "view",
      "type": "function"
    },
    {
      "inputs": [
        {
          "internalType": "bytes32",
          "name": "node",
          "type": "bytes32"
        }
      ],
      "name": "caName",
      "outputs": [
        {
          "internalType": "string",
          "name": "",
          "type": "string"
        }
      ],
      "stateMutability": "view",
      "type": "function"
    },
    {
      "inputs": [
        {
          "internalType": "bytes32",
          "name": "",
          "type": "bytes32"
        }
      ],
      "name": "caNames",
      "outputs": [
        {
          "internalType": "string",
          "name": "",
          "type": "string"
        }
      ],
      "stateMutability": "view",
      "type": "function"
    },
    {
      "inputs": [
        {
          "internalType": "bytes32",
          "name": "node",
          "type": "bytes32"
        }
      ],
      "name": "eoaName",
      "outputs": [
        {
          "internalType": "string",
          "name": "",
          "type": "string"
        }
      ],
      "stateMutability": "view",
      "type": "function"
    },
    {
      "inputs": [
        {
          "internalType": "bytes32",
          "name": "",
          "type": "bytes32"
        }
      ],
      "name": "eoaNames",
      "outputs": [
        {
          "internalType": "string",
          "name": "",
          "type": "string"
        }
      ],
      "stateMutability": "view",
      "type": "function"
    },
    {
      "inputs": [
        {
          "internalType": "bytes32",
          "name": "node",
          "type": "bytes32"
        }
      ],
      "name": "getBNSInfo",
      "outputs": [
        {
          "components": [
            {
              "internalType": "address",
              "name": "owner",
              "type": "address"
            },
            {
              "internalType": "string",
              "name": "name",
              "type": "string"
            },
            {
              "internalType": "string",
              "name": "caName",
              "type": "string"
            },
            {
              "internalType": "string",
              "name": "eoaName",
              "type": "string"
            }
          ],
          "internalType": "struct PublicResolver.BNSInfo",
          "name": "bnsInfo",
          "type": "tuple"
        }
      ],
      "stateMutability": "view",
      "type": "function"
    },
    {
      "inputs": [
        {
          "internalType": "bytes32",
          "name": "node",
          "type": "bytes32"
        }
      ],
      "name": "name",
      "outputs": [
        {
          "internalType": "string",
          "name": "",
          "type": "string"
        }
      ],
      "stateMutability": "view",
      "type": "function"
    },
    {
      "inputs": [
        {
          "internalType": "bytes32",
          "name": "",
          "type": "bytes32"
        }
      ],
      "name": "names",
      "outputs": [
        {
          "internalType": "string",
          "name": "",
          "type": "string"
        }
      ],
      "stateMutability": "view",
      "type": "function"
    },
    {
      "inputs": [
        {
          "internalType": "bytes32",
          "name": "node",
          "type": "bytes32"
        },
        {
          "internalType": "address",
          "name": "_address",
          "type": "address"
        }
      ],
      "name": "setAddress",
      "outputs": [],
      "stateMutability": "nonpayable",
      "type": "function"
    },
    {
      "inputs": [
        {
          "internalType": "bytes32",
          "name": "node",
          "type": "bytes32"
        },
        {
          "internalType": "string",
          "name": "_name",
          "type": "string"
        }
      ],
      "name": "setCaName",
      "outputs": [],
      "stateMutability": "nonpayable",
      "type": "function"
    },
    {
      "inputs": [
        {
          "internalType": "bytes32",
          "name": "node",
          "type": "bytes32"
        },
        {
          "internalType": "string",
          "name": "_name",
          "type": "string"
        }
      ],
      "name": "setEoaName",
      "outputs": [],
      "stateMutability": "nonpayable",
      "type": "function"
    },
    {
      "inputs": [
        {
          "internalType": "bytes32",
          "name": "node",
          "type": "bytes32"
        },
        {
          "internalType": "string",
          "name": "_name",
          "type": "string"
        }
      ],
      "name": "setName",
      "outputs": [],
      "stateMutability": "nonpayable",
      "type": "function"
    }
  ],
  "bytecode": "0x608060405234801561001057600080fd5b5060405161114b38038061114b83398101604081905261002f91610054565b600080546001600160a01b0319166001600160a01b0392909216919091179055610084565b60006020828403121561006657600080fd5b81516001600160a01b038116811461007d57600080fd5b9392505050565b6110b8806100936000396000f3fe608060405234801561001057600080fd5b50600436106100ea5760003560e01c8063773722131161008c578063cc43548011610066578063cc43548014610205578063d2e3f29a14610225578063ec8091fc14610238578063f59cd25f1461024b57600080fd5b806377372213146101cc578063c62a9c63146101df578063ca446dd9146101f257600080fd5b80633b3b57de116100c85780633b3b57de14610154578063691f34311461017d578063699f200f146101905780636fe938a2146101b957600080fd5b80630a338bd9146100ef5780631867e2f51461010457806320c38e2b14610134575b600080fd5b6101026100fd366004610e07565b61025e565b005b600054610117906001600160a01b031681565b6040516001600160a01b0390911681526020015b60405180910390f35b610147610142366004610e83565b610434565b60405161012b9190610ee9565b610117610162366004610e83565b6000908152600160205260409020546001600160a01b031690565b61014761018b366004610e83565b6104ce565b61011761019e366004610e83565b6001602052600090815260409020546001600160a01b031681565b6101476101c7366004610e83565b610570565b6101026101da366004610e07565b610589565b6101476101ed366004610e83565b61074f565b610102610200366004610f1b565b61076c565b610218610213366004610e83565b610948565b60405161012b9190610f4b565b610147610233366004610e83565b610b76565b610147610246366004610e83565b610b93565b610102610259366004610e07565b610bac565b6000546040516302571be360e01b815260048101859052849133916001600160a01b03909116906302571be39060240160206040518083038186803b1580156102a657600080fd5b505afa1580156102ba573d6000803e3d6000fd5b505050506040513d601f19601f820116820180604052508101906102de9190610fbe565b6001600160a01b031614806103ef57506000546040516302571be360e01b8152600481018390526001600160a01b039091169063e985e9c59082906302571be39060240160206040518083038186803b15801561033a57600080fd5b505afa15801561034e573d6000803e3d6000fd5b505050506040513d601f19601f820116820180604052508101906103729190610fbe565b6040516001600160e01b031960e084901b1681526001600160a01b03909116600482015233602482015260440160206040518083038186803b1580156103b757600080fd5b505afa1580156103cb573d6000803e3d6000fd5b505050506040513d601f19601f820116820180604052508101906103ef9190610fdb565b6104145760405162461bcd60e51b815260040161040b90610ffd565b60405180910390fd5b600084815260046020526040902061042d908484610d6e565b5050505050565b6002602052600090815260409020805461044d90611047565b80601f016020809104026020016040519081016040528092919081815260200182805461047990611047565b80156104c65780601f1061049b576101008083540402835291602001916104c6565b820191906000526020600020905b8154815290600101906020018083116104a957829003601f168201915b505050505081565b60008181526002602052604090208054606091906104eb90611047565b80601f016020809104026020016040519081016040528092919081815260200182805461051790611047565b80156105645780601f1061053957610100808354040283529160200191610564565b820191906000526020600020905b81548152906001019060200180831161054757829003601f168201915b50505050509050919050565b6004602052600090815260409020805461044d90611047565b6000546040516302571be360e01b815260048101859052849133916001600160a01b03909116906302571be39060240160206040518083038186803b1580156105d157600080fd5b505afa1580156105e5573d6000803e3d6000fd5b505050506040513d601f19601f820116820180604052508101906106099190610fbe565b6001600160a01b0316148061071a57506000546040516302571be360e01b8152600481018390526001600160a01b039091169063e985e9c59082906302571be39060240160206040518083038186803b15801561066557600080fd5b505afa158015610679573d6000803e3d6000fd5b505050506040513d601f19601f8201168201806040525081019061069d9190610fbe565b6040516001600160e01b031960e084901b1681526001600160a01b03909116600482015233602482015260440160206040518083038186803b1580156106e257600080fd5b505afa1580156106f6573d6000803e3d6000fd5b505050506040513d601f19601f8201168201806040525081019061071a9190610fdb565b6107365760405162461bcd60e51b815260040161040b90610ffd565b600084815260026020526040902061042d908484610d6e565b60008181526003602052604090208054606091906104eb90611047565b6000546040516302571be360e01b815260048101849052839133916001600160a01b03909116906302571be39060240160206040518083038186803b1580156107b457600080fd5b505afa1580156107c8573d6000803e3d6000fd5b505050506040513d601f19601f820116820180604052508101906107ec9190610fbe565b6001600160a01b031614806108fd57506000546040516302571be360e01b8152600481018390526001600160a01b039091169063e985e9c59082906302571be39060240160206040518083038186803b15801561084857600080fd5b505afa15801561085c573d6000803e3d6000fd5b505050506040513d601f19601f820116820180604052508101906108809190610fbe565b6040516001600160e01b031960e084901b1681526001600160a01b03909116600482015233602482015260440160206040518083038186803b1580156108c557600080fd5b505afa1580156108d9573d6000803e3d6000fd5b505050506040513d601f19601f820116820180604052508101906108fd9190610fdb565b6109195760405162461bcd60e51b815260040161040b90610ffd565b5060009182526001602052604090912080546001600160a01b0319166001600160a01b03909216919091179055565b61097c604051806080016040528060006001600160a01b031681526020016060815260200160608152602001606081525090565b6000828152600160209081526040808320546001600160a01b031684528483526002909152902080546109ae90611047565b80601f01602080910402602001604051908101604052809291908181526020018280546109da90611047565b8015610a275780601f106109fc57610100808354040283529160200191610a27565b820191906000526020600020905b815481529060010190602001808311610a0a57829003601f168201915b505050506020808401929092525060008381526003909152604090208054610a4e90611047565b80601f0160208091040260200160405190810160405280929190818152602001828054610a7a90611047565b8015610ac75780601f10610a9c57610100808354040283529160200191610ac7565b820191906000526020600020905b815481529060010190602001808311610aaa57829003601f168201915b505050506040808401929092525060008381526004602052208054610aeb90611047565b80601f0160208091040260200160405190810160405280929190818152602001828054610b1790611047565b8015610b645780601f10610b3957610100808354040283529160200191610b64565b820191906000526020600020905b815481529060010190602001808311610b4757829003601f168201915b50505050508160600181905250919050565b60008181526004602052604090208054606091906104eb90611047565b6003602052600090815260409020805461044d90611047565b6000546040516302571be360e01b815260048101859052849133916001600160a01b03909116906302571be39060240160206040518083038186803b158015610bf457600080fd5b505afa158015610c08573d6000803e3d6000fd5b505050506040513d601f19601f82011682018060405250810190610c2c9190610fbe565b6001600160a01b03161480610d3d57506000546040516302571be360e01b8152600481018390526001600160a01b039091169063e985e9c59082906302571be39060240160206040518083038186803b158015610c8857600080fd5b505afa158015610c9c573d6000803e3d6000fd5b505050506040513d601f19601f82011682018060405250810190610cc09190610fbe565b6040516001600160e01b031960e084901b1681526001600160a01b03909116600482015233602482015260440160206040518083038186803b158015610d0557600080fd5b505afa158015610d19573d6000803e3d6000fd5b505050506040513d601f19601f82011682018060405250810190610d3d9190610fdb565b610d595760405162461bcd60e51b815260040161040b90610ffd565b600084815260036020526040902061042d9084845b828054610d7a90611047565b90600052602060002090601f016020900481019282610d9c5760008555610de2565b82601f10610db55782800160ff19823516178555610de2565b82800160010185558215610de2579182015b82811115610de2578235825591602001919060010190610dc7565b50610dee929150610df2565b5090565b5b80821115610dee5760008155600101610df3565b600080600060408486031215610e1c57600080fd5b83359250602084013567ffffffffffffffff80821115610e3b57600080fd5b818601915086601f830112610e4f57600080fd5b813581811115610e5e57600080fd5b876020828501011115610e7057600080fd5b6020830194508093505050509250925092565b600060208284031215610e9557600080fd5b5035919050565b6000815180845260005b81811015610ec257602081850181015186830182015201610ea6565b81811115610ed4576000602083870101525b50601f01601f19169290920160200192915050565b602081526000610efc6020830184610e9c565b9392505050565b6001600160a01b0381168114610f1857600080fd5b50565b60008060408385031215610f2e57600080fd5b823591506020830135610f4081610f03565b809150509250929050565b602080825282516001600160a01b03168282015282015160806040830152600090610f7960a0840182610e9c565b90506040840151601f1980858403016060860152610f978383610e9c565b9250606086015191508085840301608086015250610fb58282610e9c565b95945050505050565b600060208284031215610fd057600080fd5b8151610efc81610f03565b600060208284031215610fed57600080fd5b81518015158114610efc57600080fd5b6020808252602a908201527f5075626c69635265736f6c7665723a3a617574686f72697365643a204e6f7420604082015269185d5d1a1bdc9a5e995960b21b606082015260800190565b600181811c9082168061105b57607f821691505b6020821081141561107c57634e487b7160e01b600052602260045260246000fd5b5091905056fea264697066735822122050aaa5db97cc51d32f0e939dbb4ba17aebaac7379c08d47da038e5e0eccafe9a64736f6c63430008090033",
  "linkReferences": {},
  "deployedLinkReferences": {}
}