{
  "_format": "hh-sol-artifact-1",
  "contractName": "PublicResolver",
  "sourceName": "contracts/resolver/PublicResolver.sol",
  "abi": [
    {
      "inputs": [
        {
          "internalType": "address",
          "name": "bnsAddr",
          "type": "address"
        }
      ],
      "stateMutability": "nonpayable",
      "type": "constructor"
    },
    {
      "inputs": [
        {
          "internalType": "bytes32",
          "name": "node",
          "type": "bytes32"
        }
      ],
      "name": "addr",
      "outputs": [
        {
          "internalType": "address",
          "name": "",
          "type": "address"
        }
      ],
      "stateMutability": "view",
      "type": "function"
    },
    {
      "inputs": [
        {
          "internalType": "bytes32",
          "name": "",
          "type": "bytes32"
        }
      ],
      "name": "addresses",
      "outputs": [
        {
          "internalType": "address",
          "name": "",
          "type": "address"
        }
      ],
      "stateMutability": "view",
      "type": "function"
    },
    {
      "inputs": [],
      "name": "bns",
      "outputs": [
        {
          "internalType": "contract BNSRegistry",
          "name": "",
          "type": "address"
        }
      ],
      "stateMutability": "view",
      "type": "function"
    },
    {
      "inputs": [
        {
          "internalType": "bytes32",
          "name": "node",
          "type": "bytes32"
        }
      ],
      "name": "caName",
      "outputs": [
        {
          "internalType": "string",
          "name": "",
          "type": "string"
        }
      ],
      "stateMutability": "view",
      "type": "function"
    },
    {
      "inputs": [
        {
          "internalType": "bytes32",
          "name": "",
          "type": "bytes32"
        }
      ],
      "name": "caNames",
      "outputs": [
        {
          "internalType": "string",
          "name": "",
          "type": "string"
        }
      ],
      "stateMutability": "view",
      "type": "function"
    },
    {
      "inputs": [
        {
          "internalType": "bytes32",
          "name": "",
          "type": "bytes32"
        }
      ],
      "name": "contactAddresses",
      "outputs": [
        {
          "internalType": "address",
          "name": "",
          "type": "address"
        }
      ],
      "stateMutability": "view",
      "type": "function"
    },
    {
      "inputs": [
        {
          "internalType": "bytes32",
          "name": "node",
          "type": "bytes32"
        }
      ],
      "name": "contractAddr",
      "outputs": [
        {
          "internalType": "address",
          "name": "",
          "type": "address"
        }
      ],
      "stateMutability": "view",
      "type": "function"
    },
    {
      "inputs": [
        {
          "internalType": "bytes32",
          "name": "node",
          "type": "bytes32"
        }
      ],
      "name": "eoaName",
      "outputs": [
        {
          "internalType": "string",
          "name": "",
          "type": "string"
        }
      ],
      "stateMutability": "view",
      "type": "function"
    },
    {
      "inputs": [
        {
          "internalType": "bytes32",
          "name": "",
          "type": "bytes32"
        }
      ],
      "name": "eoaNames",
      "outputs": [
        {
          "internalType": "string",
          "name": "",
          "type": "string"
        }
      ],
      "stateMutability": "view",
      "type": "function"
    },
    {
      "inputs": [
        {
          "internalType": "bytes32",
          "name": "node",
          "type": "bytes32"
        }
      ],
      "name": "getBNSInfo",
      "outputs": [
        {
          "components": [
            {
              "internalType": "address",
              "name": "owner",
              "type": "address"
            },
            {
              "internalType": "address",
              "name": "ca",
              "type": "address"
            },
            {
              "internalType": "string",
              "name": "name",
              "type": "string"
            },
            {
              "internalType": "string",
              "name": "caName",
              "type": "string"
            },
            {
              "internalType": "string",
              "name": "eoaName",
              "type": "string"
            }
          ],
          "internalType": "struct PublicResolver.BNSInfo",
          "name": "bnsInfo",
          "type": "tuple"
        }
      ],
      "stateMutability": "view",
      "type": "function"
    },
    {
      "inputs": [
        {
          "internalType": "bytes32",
          "name": "node",
          "type": "bytes32"
        }
      ],
      "name": "name",
      "outputs": [
        {
          "internalType": "string",
          "name": "",
          "type": "string"
        }
      ],
      "stateMutability": "view",
      "type": "function"
    },
    {
      "inputs": [
        {
          "internalType": "bytes32",
          "name": "",
          "type": "bytes32"
        }
      ],
      "name": "names",
      "outputs": [
        {
          "internalType": "string",
          "name": "",
          "type": "string"
        }
      ],
      "stateMutability": "view",
      "type": "function"
    },
    {
      "inputs": [
        {
          "internalType": "bytes32",
          "name": "node",
          "type": "bytes32"
        },
        {
          "internalType": "address",
          "name": "_address",
          "type": "address"
        }
      ],
      "name": "setAddress",
      "outputs": [],
      "stateMutability": "nonpayable",
      "type": "function"
    },
    {
      "inputs": [
        {
          "internalType": "bytes32",
          "name": "node",
          "type": "bytes32"
        },
        {
          "internalType": "string",
          "name": "_name",
          "type": "string"
        }
      ],
      "name": "setCaName",
      "outputs": [],
      "stateMutability": "nonpayable",
      "type": "function"
    },
    {
      "inputs": [
        {
          "internalType": "bytes32",
          "name": "node",
          "type": "bytes32"
        },
        {
          "internalType": "address",
          "name": "_contractAddress",
          "type": "address"
        }
      ],
      "name": "setContractAddress",
      "outputs": [],
      "stateMutability": "nonpayable",
      "type": "function"
    },
    {
      "inputs": [
        {
          "internalType": "bytes32",
          "name": "node",
          "type": "bytes32"
        },
        {
          "internalType": "string",
          "name": "_name",
          "type": "string"
        }
      ],
      "name": "setEoaName",
      "outputs": [],
      "stateMutability": "nonpayable",
      "type": "function"
    },
    {
      "inputs": [
        {
          "internalType": "bytes32",
          "name": "node",
          "type": "bytes32"
        },
        {
          "internalType": "string",
          "name": "_name",
          "type": "string"
        }
      ],
      "name": "setName",
      "outputs": [],
      "stateMutability": "nonpayable",
      "type": "function"
    }
  ],
  "bytecode": "0x608060405234801561001057600080fd5b506040516113b73803806113b783398101604081905261002f91610054565b600080546001600160a01b0319166001600160a01b0392909216919091179055610084565b60006020828403121561006657600080fd5b81516001600160a01b038116811461007d57600080fd5b9392505050565b611324806100936000396000f3fe608060405234801561001057600080fd5b506004361061010b5760003560e01c80636fe938a2116100a2578063cc43548011610071578063cc43548014610278578063d2e3f29a14610298578063e001f841146102ab578063ec8091fc146102be578063f59cd25f146102d157600080fd5b80636fe938a21461022c578063773722131461023f578063c62a9c6314610252578063ca446dd91461026557600080fd5b80633309f73d116100de5780633309f73d1461019e5780633b3b57de146101c7578063691f3431146101f0578063699f200f1461020357600080fd5b80630a338bd914610110578063134f1a10146101255780631867e2f51461016b57806320c38e2b1461017e575b600080fd5b61012361011e366004611065565b6102e4565b005b61014e6101333660046110e1565b6002602052600090815260409020546001600160a01b031681565b6040516001600160a01b0390911681526020015b60405180910390f35b60005461014e906001600160a01b031681565b61019161018c3660046110e1565b6104ba565b6040516101629190611147565b61014e6101ac3660046110e1565b6000908152600260205260409020546001600160a01b031690565b61014e6101d53660046110e1565b6000908152600160205260409020546001600160a01b031690565b6101916101fe3660046110e1565b610554565b61014e6102113660046110e1565b6001602052600090815260409020546001600160a01b031681565b61019161023a3660046110e1565b6105f6565b61012361024d366004611065565b61060f565b6101916102603660046110e1565b6107d5565b610123610273366004611179565b6107f2565b61028b6102863660046110e1565b6109ce565b60405161016291906111a9565b6101916102a63660046110e1565b610bf8565b6101236102b9366004611179565b610c15565b6101916102cc3660046110e1565b610df1565b6101236102df366004611065565b610e0a565b6000546040516302571be360e01b815260048101859052849133916001600160a01b03909116906302571be39060240160206040518083038186803b15801561032c57600080fd5b505afa158015610340573d6000803e3d6000fd5b505050506040513d601f19601f82011682018060405250810190610364919061122a565b6001600160a01b0316148061047557506000546040516302571be360e01b8152600481018390526001600160a01b039091169063e985e9c59082906302571be39060240160206040518083038186803b1580156103c057600080fd5b505afa1580156103d4573d6000803e3d6000fd5b505050506040513d601f19601f820116820180604052508101906103f8919061122a565b6040516001600160e01b031960e084901b1681526001600160a01b03909116600482015233602482015260440160206040518083038186803b15801561043d57600080fd5b505afa158015610451573d6000803e3d6000fd5b505050506040513d601f19601f820116820180604052508101906104759190611247565b61049a5760405162461bcd60e51b815260040161049190611269565b60405180910390fd5b60008481526005602052604090206104b3908484610fcc565b5050505050565b600360205260009081526040902080546104d3906112b3565b80601f01602080910402602001604051908101604052809291908181526020018280546104ff906112b3565b801561054c5780601f106105215761010080835404028352916020019161054c565b820191906000526020600020905b81548152906001019060200180831161052f57829003601f168201915b505050505081565b6000818152600360205260409020805460609190610571906112b3565b80601f016020809104026020016040519081016040528092919081815260200182805461059d906112b3565b80156105ea5780601f106105bf576101008083540402835291602001916105ea565b820191906000526020600020905b8154815290600101906020018083116105cd57829003601f168201915b50505050509050919050565b600560205260009081526040902080546104d3906112b3565b6000546040516302571be360e01b815260048101859052849133916001600160a01b03909116906302571be39060240160206040518083038186803b15801561065757600080fd5b505afa15801561066b573d6000803e3d6000fd5b505050506040513d601f19601f8201168201806040525081019061068f919061122a565b6001600160a01b031614806107a057506000546040516302571be360e01b8152600481018390526001600160a01b039091169063e985e9c59082906302571be39060240160206040518083038186803b1580156106eb57600080fd5b505afa1580156106ff573d6000803e3d6000fd5b505050506040513d601f19601f82011682018060405250810190610723919061122a565b6040516001600160e01b031960e084901b1681526001600160a01b03909116600482015233602482015260440160206040518083038186803b15801561076857600080fd5b505afa15801561077c573d6000803e3d6000fd5b505050506040513d601f19601f820116820180604052508101906107a09190611247565b6107bc5760405162461bcd60e51b815260040161049190611269565b60008481526003602052604090206104b3908484610fcc565b6000818152600460205260409020805460609190610571906112b3565b6000546040516302571be360e01b815260048101849052839133916001600160a01b03909116906302571be39060240160206040518083038186803b15801561083a57600080fd5b505afa15801561084e573d6000803e3d6000fd5b505050506040513d601f19601f82011682018060405250810190610872919061122a565b6001600160a01b0316148061098357506000546040516302571be360e01b8152600481018390526001600160a01b039091169063e985e9c59082906302571be39060240160206040518083038186803b1580156108ce57600080fd5b505afa1580156108e2573d6000803e3d6000fd5b505050506040513d601f19601f82011682018060405250810190610906919061122a565b6040516001600160e01b031960e084901b1681526001600160a01b03909116600482015233602482015260440160206040518083038186803b15801561094b57600080fd5b505afa15801561095f573d6000803e3d6000fd5b505050506040513d601f19601f820116820180604052508101906109839190611247565b61099f5760405162461bcd60e51b815260040161049190611269565b5060009182526001602052604090912080546001600160a01b0319166001600160a01b03909216919091179055565b6040805160a081018252600080825260208083018281526060848601819052808501819052608085015285835260018252848320546001600160a01b039081168552868452600283528584205416905284825260039052919091208054610a34906112b3565b80601f0160208091040260200160405190810160405280929190818152602001828054610a60906112b3565b8015610aad5780601f10610a8257610100808354040283529160200191610aad565b820191906000526020600020905b815481529060010190602001808311610a9057829003601f168201915b505050506040808401929092525060008381526004602052208054610ad1906112b3565b80601f0160208091040260200160405190810160405280929190818152602001828054610afd906112b3565b8015610b4a5780601f10610b1f57610100808354040283529160200191610b4a565b820191906000526020600020905b815481529060010190602001808311610b2d57829003601f168201915b5050505050606082015260008281526005602052604090208054610b6d906112b3565b80601f0160208091040260200160405190810160405280929190818152602001828054610b99906112b3565b8015610be65780601f10610bbb57610100808354040283529160200191610be6565b820191906000526020600020905b815481529060010190602001808311610bc957829003601f168201915b50505050508160800181905250919050565b6000818152600560205260409020805460609190610571906112b3565b6000546040516302571be360e01b815260048101849052839133916001600160a01b03909116906302571be39060240160206040518083038186803b158015610c5d57600080fd5b505afa158015610c71573d6000803e3d6000fd5b505050506040513d601f19601f82011682018060405250810190610c95919061122a565b6001600160a01b03161480610da657506000546040516302571be360e01b8152600481018390526001600160a01b039091169063e985e9c59082906302571be39060240160206040518083038186803b158015610cf157600080fd5b505afa158015610d05573d6000803e3d6000fd5b505050506040513d601f19601f82011682018060405250810190610d29919061122a565b6040516001600160e01b031960e084901b1681526001600160a01b03909116600482015233602482015260440160206040518083038186803b158015610d6e57600080fd5b505afa158015610d82573d6000803e3d6000fd5b505050506040513d601f19601f82011682018060405250810190610da69190611247565b610dc25760405162461bcd60e51b815260040161049190611269565b5060009182526002602052604090912080546001600160a01b0319166001600160a01b03909216919091179055565b600460205260009081526040902080546104d3906112b3565b6000546040516302571be360e01b815260048101859052849133916001600160a01b03909116906302571be39060240160206040518083038186803b158015610e5257600080fd5b505afa158015610e66573d6000803e3d6000fd5b505050506040513d601f19601f82011682018060405250810190610e8a919061122a565b6001600160a01b03161480610f9b57506000546040516302571be360e01b8152600481018390526001600160a01b039091169063e985e9c59082906302571be39060240160206040518083038186803b158015610ee657600080fd5b505afa158015610efa573d6000803e3d6000fd5b505050506040513d601f19601f82011682018060405250810190610f1e919061122a565b6040516001600160e01b031960e084901b1681526001600160a01b03909116600482015233602482015260440160206040518083038186803b158015610f6357600080fd5b505afa158015610f77573d6000803e3d6000fd5b505050506040513d601f19601f82011682018060405250810190610f9b9190611247565b610fb75760405162461bcd60e51b815260040161049190611269565b60008481526004602052604090206104b39084845b828054610fd8906112b3565b90600052602060002090601f016020900481019282610ffa5760008555611040565b82601f106110135782800160ff19823516178555611040565b82800160010185558215611040579182015b82811115611040578235825591602001919060010190611025565b5061104c929150611050565b5090565b5b8082111561104c5760008155600101611051565b60008060006040848603121561107a57600080fd5b83359250602084013567ffffffffffffffff8082111561109957600080fd5b818601915086601f8301126110ad57600080fd5b8135818111156110bc57600080fd5b8760208285010111156110ce57600080fd5b6020830194508093505050509250925092565b6000602082840312156110f357600080fd5b5035919050565b6000815180845260005b8181101561112057602081850181015186830182015201611104565b81811115611132576000602083870101525b50601f01601f19169290920160200192915050565b60208152600061115a60208301846110fa565b9392505050565b6001600160a01b038116811461117657600080fd5b50565b6000806040838503121561118c57600080fd5b82359150602083013561119e81611161565b809150509250929050565b60208152600060018060a01b0380845116602084015280602085015116604084015250604083015160a060608401526111e560c08401826110fa565b90506060840151601f198085840301608086015261120383836110fa565b925060808601519150808584030160a08601525061122182826110fa565b95945050505050565b60006020828403121561123c57600080fd5b815161115a81611161565b60006020828403121561125957600080fd5b8151801515811461115a57600080fd5b6020808252602a908201527f5075626c69635265736f6c7665723a3a617574686f72697365643a204e6f7420604082015269185d5d1a1bdc9a5e995960b21b606082015260800190565b600181811c908216806112c757607f821691505b602082108114156112e857634e487b7160e01b600052602260045260246000fd5b5091905056fea2646970667358221220e75b3d5568ae9c8f3c8b9b2806fca3d92bf3ff15e6cdb636852bd0f30b361f7764736f6c63430008090033",
  "linkReferences": {},
  "deployedLinkReferences": {}
}